S0160000576561746865726D6569737465722E7372656345
S11300000C942A000C9447000C9447000C9447006D
S11300100C9447000C9447000C9447000C94470040
S11300200C9447000C9447000C9447000C94470030
S11300300C9447000C9447000C9447000C94470020
S11300400C9447000C9447000C9447000C94470010
S11300500C94470011241FBECFE5D8E0DEBFCDBF0E
S113006010E0A0E6B0E0E8EDF9E002C005900D92E2
S1130070A636B107D9F720E0A6E6B0E001C01D928C
S1130080A83DB207E1F70E9469040C94EA040C94B9
S11300900000CF93DF93D82FC62F8EEE0E94C703A4
S11300A08D2F0E94EE038C2F0E94EE030E94E80322
S11300B0DF91CF910895DF92EF92FF920F931F93F8
S11300C0CF93DF93C82FF62ED72FD42E8EEE0E9417
S11300D0C7038C2F0E94EE038FEE0E94E503DD2000
S11300E0D1F00F2D1D2FC0E0D0E0ED2CF12C81E0DC
S11300F0E81AF108CE15DF0529F40E940204F8017C
S1130100808304C00E94FB03F801808321960F5F63
S11301101F4FCD1578F30E94E803DF91CF911F9113
S11301200F91FF90EF90DF9008950F931F93CF935B
S1130130DF93EAEBF0E0C6E6D0E00C811D812E816E
S11301403F810993199329933993CE17DF07A9F7B0
S11301506093B6007093B7008093B8009093B90091
S1130160A6E6B0E060E070E0CB010D911D912D9109
S11301703D91600F711F821F931FAE17BF07A9F730
S113018025E130E040E050E00E94A904CA01B90131
S1130190DF91CF911F910F910895CF93DF9300D0FA
S11301A0CDB7DEB71A82198242E0BE016F5F7F4F7E
S11301B08AEA0E945B00898190E0982F88272A812F
S11301C0822B9093CF008093CE0042E0BE016F5FFC
S11301D07F4F8CEA0E945B00898190E0982F8827EA
S11301E02A81822B9093D7008093D60042E0BE01EF
S11301F06F5F7F4F8EEA0E945B00898190E0982FA9
S113020088272A81822B9093C3008093C20042E006
S1130210BE016F5F7F4F80EB0E945B00898190E09D
S1130220982F88272A81822B9093BB008093BA0051
S113023042E0BE016F5F7F4F82EB0E945B008981C9
S113024090E0982F88272A81822B9093D300809363
S1130250D20042E0BE016F5F7F4F84EB0E945B00DF
S1130260898190E0982F88272A81822B9093CB0054
S11302708093CA0042E0BE016F5F7F4F86EB0E940D
S11302805B00898190E0982F88272A81822B9093A4
S1130290C9008093C80042E0BE016F5F7F4F88EBC6
S11302A00E945B00898190E0982F88272A81822B05
S11302B09093BD008093BC0042E0BE016F5F7F4F0E
S11302C08AEB0E945B00898190E0982F88272A811D
S11302D0822B9093D1008093D00042E0BE016F5FE7
S11302E07F4F8CEB0E945B00898190E0982F8827D8
S11302F02A81822B9093D5008093D40042E0BE01E2
S11303006F5F7F4F8EEB0E945B00898190E0982F96
S113031088272A81822B9093CD008093CC000F9064
S11303200F90DF91CF910895CF92DF92EF92FF92D9
S11303300F931F93CF93DF9300D0CDB7DEB71A820C
S113034019826EE284EF0E94490081EE94E00197E5
S1130350F1F700C0000042E0BE016F5F7F4F86EFFF
S11303600E945B002981822F90E0A0E0B0E0442746
S1130370582F692F7A2F8A81482B8091CA00909137
S1130380CB009A01AB01281B390B41095109A091FB
S1130390D200B091D3000E94D7046B017C010B2ED4
S11303A0BFE0F594E794D794C794BA95D1F7B02DEC
S11303B06091D4007091D500CB01AA2797FDA09538
S11303C0BA2FBC01CD01052E5BE0660F771F881F95
S11303D0991F5A95D1F7502D2091CC003091CD0022
S11303E08901222717FD2095322FA90198012C0D90
S11303F03D1D4E1D5F1D0E94A904C20ED31EE41EA6
S1130400F51EC092C400D092C500E092C600F092DE
S1130410C7000F900F90DF91CF911F910F91FF9024
S1130420EF90DF90CF9008954F925F926F927F92FA
S11304308F929F92AF92BF92CF92DF92EF92FF92F0
S1130440CF93DF93CDB7DEB72B970FB6F894DEBF0B
S11304500FBECDBF19821A821B820E94940164EFE1
S113046084EF0E94490083E699E10197F1F700C007
S1130470000043E0BE016F5F7F4F86EF0E945B0088
S1130480C090C400D090C500E090C600F090C700B2
S113049090EAC91A9FE0D90AE108F108A701960178
S11304A0C701B6010E9477044B015C01A091C20010
S11304B0B091C3000E94E2042B013C01032E3DE0F5
S11304C075946794579447943A95D1F7302DA09139
S11304D0C800B091C900A5019401012E1CE05595F6
S11304E04795379527951A95D1F7102D0E94E20468
S11304F0BB2797FDB095AB2F480E591E6A1E7B1E75
S113050022E0420E511C611C711CD301C201B5953D
S1130510A79597958795B595A795979587959C01E8
S1130520AD0130584F4F5F4FA091BA00B091BB005E
S11305300E94D7049B01AC01012E1FE056954795FC
S1130540379527951A95D1F7102D288739874A872B
S11305505B8729818A8190E0A0E0B0E0BA2FA92FBF
S1130560982F8827A22B2B81822B9C01AD016894A4
S113057014F855954795379527951694D1F72C83FC
S11305803D834E835F834090CE005090CF0066241D
S113059057FC6094762C440C551C661C771C440C48
S11305A0551C661C771CA091BC00B091BD00A50130
S11305B094010E94E2044B015C01072E77E1B5949B
S11305C0A794979487947A95D1F7702DA091D6002B
S11305D0B091D700A70196010E94E204DC01CB018F
S11305E0072E7BE0B595A795979587957A95D1F7D2
S11305F0702D880E991EAA1EBB1E480C591C6A1C1D
S11306007B1C440C551C661C771C2C813D814E813F
S11306105F812419350946095709AAE6B8E10E9401
S1130620D70499236CF0660F771F881F991F2885BC
S113063039854A855B850E94870469017A010CC06B
S1130640288539854A855B850E94870469017A017A
S1130650CC0CDD1CEE1CFF1C9927F7FC9A958F2D02
S11306607E2D6D2D9B01AC010E9477049B01AC0192
S1130670AEEDBBE00E94D7044C01BB2497FCB094C0
S1130680AB2CA3E4B3EEA70196010E94E504BB27BB
S113069097FDB095AB2F880E991EAA1EBB1E3FEC8A
S11306A0830E3EE0931EA11CB11CD501C4016894C5
S11306B013F8B595A795979587951694D1F7BC012E
S11306C0CD016C0D7D1D8E1D9F1D6093BE0070932A
S11306D0BF008093C0009093C1000E949500609376
S11306E0BE007093BF008093C0009093C1002B960E
S11306F00FB6F894DEBF0FBECDBFDF91CF91FF9050
S1130700EF90DF90CF90BF90AF909F908F907F90AD
S11307106F905F904F900895CF930E94A50383E05C
S11307208A95F1F700000E94CD000E949401C5E172
S11307300E941402C150E1F7CF9108950E94A503CD
S113074083E08A95F1F70000089511B880EC80B930
S1130750089594EA96BF06B607FEFDCF91B1987F3F
S1130760983011F0903179F483B984E886BF06B6E5
S113077007FEFDCF91B1987F983139F081E0903434
S113078029F480E0089581E0089580E0089524EA42
S113079034E844E926BF06B607FEFDCF91B1987F41
S11307A0983011F09031B1F783B936BF06B607FE21
S11307B0FDCF91B1987F903211F0983529F446BF5E
S11307C006B604FCFDCFE6CF08950E94A903089560
S11307D084E986BF06B604FCFDCF089583B984E896
S11307E086BF06B607FEFDCF91B1987F81E09832AF
S11307F009F480E0089584EC86BF06B607FEFDCFB9
S113080083B1089584E886BF06B607FEFDCF83B1A1
S11308100895C29A00000000C298089511BAC19ABE
S1130820C09882B3803528F00E94090482B38035D1
S1130830D8F78FEF81BB0895CF93C82F0E940E0481
S1130840C2BB88B38C7F88BB0E94090412BACF91C3
S1130850089587B3876087BB8FE59AEE0197F1F718
S113086000C0000081E00E941C048FE39FE1019717
S1130870F1F700C0000088E30E941C0487EC90E0BC
S11308800197F1F700C000008CE00E941C0487EC83
S113089090E00197F1F700C000000895CF93C82FAE
S11308A00E940E04C2BBC198C09A0E94090412BAE5
S11308B0CF910895CF93DF93EC018881882331F0A1
S11308C021960E944E0489918111FBCFDF91CF9133
S11308D008958FEF8ABB1BBA0E948C030E949E036B
S11308E00E94290480E690E00E945A04FBCFDB01B9
S11308F08F939F930E94D704BF91AF91A29F800DC5
S1130900911DA39F900DB29F900D11240895A1E213
S11309101A2EAA1BBB1BFD010DC0AA1FBB1FEE1F75
S1130920FF1FA217B307E407F50720F0A21BB30BC0
S1130930E40BF50B661F771F881F991F1A9469F73C
S113094060957095809590959B01AC01BD01CF0198
S11309500895052E97FB1EF400940E94C00457FDD1
S113096007D00E94870407FC03D04EF40C94C00403
S113097050954095309521953F4F4F4F5F4F0895C7
S113098090958095709561957F4F8F4F9F4F0895F7
S1130990A29FB001B39FC001A39F700D811D1124BC
S11309A0911DB29F700D811D1124911D08950E9407
S11309B0C804A59F900DB49F900DA49F800D911D18
S11309C011240895B7FF0C94D7040E94D704821B06
S10B09D0930B0895F894FFCF86
S10909D854657374000075
S9030000FC
