S0160000576561746865726D6569737465722E7372656345
S11300000C942A000C9447000C9447000C9447006D
S11300100C9447000C9447000C9447000C94470040
S11300200C9447000C9447000C9447000C94470030
S11300300C9447000C9447000C9447000C94470020
S11300400C9447000C9447000C9447000C94470010
S11300500C94470011241FBECFE5D8E0DEBFCDBF0E
S113006010E0A0E6B0E0ECE1FCE002C005900D92E7
S1130070AC36B107D9F720E0ACE6B0E001C01D9280
S1130080AE3DB207E1F70E9407050C940C060C94F0
S11300900000CF93DF93D82FC62F8EEE0E943B042F
S11300A08D2F0E9462048C2F0E9462040E945C04C3
S11300B0DF91CF910895DF92EF92FF920F931F93F8
S11300C0CF93DF93C82FF62ED72FD42E8EEE0E9417
S11300D03B048C2F0E9462048FEE0E945904DD20A1
S11300E0D1F00F2D1D2FC0E0D0E0ED2CF12C81E0DC
S11300F0E81AF108CE15DF0529F40E947604F80108
S1130100808304C00E946F04F801808321960F5FEE
S11301101F4FCD1578F30E945C04DF91CF911F919E
S11301200F91FF90EF90DF9008950F931F93CF935B
S1130130DF93E0ECF0E0CCE6D0E00C811D812E8171
S11301403F810993199329933993CE17DF07A9F7B0
S11301506093BC007093BD008093BE009093BF0079
S1130160ACE6B0E060E070E0CB010D911D912D9103
S11301703D91600F711F821F931FAE17BF07A9F730
S113018025E130E040E050E00E949605CA01B90143
S1130190DF91CF911F910F910895CF93DF9300D0FA
S11301A0CDB7DEB71A82198242E0BE016F5F7F4F7E
S11301B08AEA0E945B00898190E0982F88272A812F
S11301C0822B9093D5008093D40042E0BE016F5FF0
S11301D07F4F8CEA0E945B00898190E0982F8827EA
S11301E02A81822B9093DD008093DC0042E0BE01E3
S11301F06F5F7F4F8EEA0E945B00898190E0982FA9
S113020088272A81822B9093C9008093C80042E0FA
S1130210BE016F5F7F4F80EB0E945B00898190E09D
S1130220982F88272A81822B9093C1008093C00045
S113023042E0BE016F5F7F4F82EB0E945B008981C9
S113024090E0982F88272A81822B9093D90080935D
S1130250D80042E0BE016F5F7F4F84EB0E945B00D9
S1130260898190E0982F88272A81822B9093D1004E
S11302708093D00042E0BE016F5F7F4F86EB0E9407
S11302805B00898190E0982F88272A81822B9093A4
S1130290CF008093CE0042E0BE016F5F7F4F88EBBA
S11302A00E945B00898190E0982F88272A81822B05
S11302B09093C3008093C20042E0BE016F5F7F4F02
S11302C08AEB0E945B00898190E0982F88272A811D
S11302D0822B9093D7008093D60042E0BE016F5FDB
S11302E07F4F8CEB0E945B00898190E0982F8827D8
S11302F02A81822B9093DB008093DA0042E0BE01D6
S11303006F5F7F4F8EEB0E945B00898190E0982F96
S113031088272A81822B9093D3008093D2000F9058
S11303200F90DF91CF910895CF92DF92EF92FF92D9
S11303300F931F93CF93DF9300D0CDB7DEB71A820C
S113034019826EE284EF0E94490081EE94E00197E5
S1130350F1F700C0000042E0BE016F5F7F4F86EFFF
S11303600E945B002981822F90E0A0E0B0E0442746
S1130370582F692F7A2F8A81482B8091D000909131
S1130380D1009A01AB01281B390B41095109A091F5
S1130390D800B091D9000E94C4056B017C010B2EDA
S11303A0BFE0F594E794D794C794BA95D1F7B02DEC
S11303B06091DA007091DB00CB01AA2797FDA0952C
S11303C0BA2FBC01CD01052E5BE0660F771F881F95
S11303D0991F5A95D1F7502D2091D2003091D30016
S11303E08901222717FD2095322FA90198012C0D90
S11303F03D1D4E1D5F1D0E949605C20ED31EE41EB8
S1130400F51EC092CA00D092CB00E092CC00F092CC
S1130410CD000F900F90DF91CF911F910F91FF901E
S1130420EF90DF90CF9008954F925F926F927F92FA
S11304308F929F92AF92BF92CF92DF92EF92FF92F0
S1130440CF93DF93CDB7DEB72B970FB6F894DEBF0B
S11304500FBECDBF19821A821B820E94940164EFE1
S113046084EF0E94490083E699E10197F1F700C007
S1130470000043E0BE016F5F7F4F86EF0E945B0088
S1130480C090CA00D090CB00E090CC00F090CD009A
S113049090EAC91A9FE0D90AE108F108A701960178
S11304A0C701B6010E9464054B015C01A091C8001C
S11304B0B091C9000E94CF052B013C01032E3DE001
S11304C075946794579447943A95D1F7302DA09139
S11304D0CE00B091CF00A5019401012E1CE05595EA
S11304E04795379527951A95D1F7102D0E94CF057A
S11304F0BB2797FDB095AB2F480E591E6A1E7B1E75
S113050022E0420E511C611C711CD301C201B5953D
S1130510A79597958795B595A795979587959C01E8
S1130520AD0130584F4F5F4FA091C000B091C10052
S11305300E94C4059B01AC01012E1FE0569547950E
S1130540379527951A95D1F7102D288739874A872B
S11305505B8729818A8190E0A0E0B0E0BA2FA92FBF
S1130560982F8827A22B2B81822B9C01AD016894A4
S113057014F855954795379527951694D1F72C83FC
S11305803D834E835F834090D4005090D500662411
S113059057FC6094762C440C551C661C771C440C48
S11305A0551C661C771CA091C200B091C300A50124
S11305B094010E94CF054B015C01072E77E1B594AD
S11305C0A794979487947A95D1F7702DA091DC0025
S11305D0B091DD00A70196010E94CF05DC01CB019B
S11305E0072E7BE0B595A795979587957A95D1F7D2
S11305F0702D880E991EAA1EBB1E480C591C6A1C1D
S11306007B1C440C551C661C771C2C813D814E813F
S11306105F812419350946095709AAE6B8E10E9401
S1130620C40599236CF0660F771F881F991F2885CE
S113063039854A855B850E94740569017A010CC07D
S1130640288539854A855B850E94740569017A018C
S1130650CC0CDD1CEE1CFF1C9927F7FC9A958F2D02
S11306607E2D6D2D9B01AC010E9464059B01AC01A4
S1130670AEEDBBE00E94C4054C01BB2497FCB094D2
S1130680AB2CA3E4B3EEA70196010E94D205BB27CD
S113069097FDB095AB2F880E991EAA1EBB1E3FEC8A
S11306A0830E3EE0931EA11CB11CD501C4016894C5
S11306B013F8B595A795979587951694D1F7BC012E
S11306C0CD016C0D7D1D8E1D9F1D6093C400709324
S11306D0C5008093C6009093C7000E949500609364
S11306E0C4007093C5008093C6009093C7002B96F6
S11306F00FB6F894DEBF0FBECDBFDF91CF91FF9050
S1130700EF90DF90CF90BF90AF909F908F907F90AD
S11307106F905F904F900895CF930E94190483E0E7
S11307208A95F1F700000E94CD000E949401C5E172
S11307300E941402C150E1F7CF9108950E94190458
S113074083E08A95F1F7000008958F929F92AF920B
S1130750BF92CF92DF92EF92FF920F931F93CF93AA
S1130760DF93EC016B015A01490180ED0E943B04C7
S113077080E00E9462040E945C0481ED0E9459049E
S11307800E946F048F77982F92959F70292F220FC4
S1130790920F990F891BF70180830E946F04982F91
S11307A092959F70292F220F920F990F891BF801A0
S11307B080830E946F04982F92959F70292F220F97
S11307C0920F990F891BF40180830E946F040E9489
S11307D06F04982F92959F70292F220F920F990FD3
S11307E0891BF50180830E946F04982F92959F7056
S11307F0292F220F920F990F891BF60180830E94E3
S11308007604982F92959F70292F220F920F990F9B
S1130810891B88830E945C04DF91CF911F910F9103
S1130820FF90EF90DF90CF90BF90AF909F908F900C
S1130830089511B880EC80B9089594EA96BF06B67D
S113084007FEFDCF91B1987F983011F0903179F483
S113085083B984E886BF06B607FEFDCF91B1987FC1
S1130860983139F081E0903429F480E0089581E0F2
S1130870089580E0089524EA34E844E926BF06B6E2
S113088007FEFDCF91B1987F983011F09031B1F708
S113089083B936BF06B607FEFDCF91B1987F90327B
S11308A011F0983529F446BF06B604FCFDCFE6CF17
S11308B008950E941D04089584E986BF06B604FCC9
S11308C0FDCF089583B984E886BF06B607FEFDCF41
S11308D091B1987F81E0983209F480E0089584EC26
S11308E086BF06B607FEFDCF83B1089584E886BFB0
S11308F006B607FEFDCF83B10895C29A000000003A
S1130900C298089511BAC19AC09882B3803528F06C
S11309100E947D0482B38035D8F78FEF81BB0895A0
S1130920CF93C82F0E948204C2BB88B38C7F88BB3C
S11309300E947D0412BACF91089587B3876087BB64
S11309408FE59AEE0197F1F700C0000081E00E9464
S113095090048FE39FE10197F1F700C0000088E362
S11309600E94900487EC90E00197F1F700C000002A
S11309708CE00E94900487EC90E00197F1F700C0AE
S113098000000895CF93C82F0E948204C2BBC1986F
S1130990C09A0E947D0412BACF910895CF93DF9339
S11309A0EC018881882349F021960E94C20480EAE0
S11309B08A95F1F789918111F8CFDF91CF9108954C
S11309C0CF93DF9300D000D000D0CDB7DEB74AE09C
S11309D0BE016F5F7F4F0E94D705CE0101960E9432
S11309E0CE0426960FB6F894DEBF0FBECDBFDF91BE
S11309F0CF9108958158E62FF0E0E15AFF4F90819E
S1130A00890F0E94900480EA8A95F1F70895CF93A4
S1130A10DF9300D000D000D0CDB7DEB78FEF8ABB14
S1130A201BBA0E948C030E949E030E949D04CE0167
S1130A3006967C018E010B5F1F4F9E012C5F3F4F7A
S1130A40AE014D5F5F4FBE016E5F7F4F05970E9401
S1130A50A50361E081E00E94FA0484E690E00E942C
S1130A60CE04898190E00E94E0048AE690E00E942E
S1130A70CE048A8190E00E94E0048AE690E00E941D
S1130A80CE048B8190E00E94E00462E081E00E9449
S1130A90FA048C8190E00E94E0048AE690E00E94CF
S1130AA0CE048D8190E00E94E0048AE690E00E94EA
S1130AB0CE048E8190E00E94E0048AE690E00E94D9
S1130AC0CE048E818BBBB3CFDB018F939F930E94A7
S1130AD0C405BF91AF91A29F800D911DA39F900D5E
S1130AE0B29F900D11240895A1E21A2EAA1BBB1BDC
S1130AF0FD010DC0AA1FBB1FEE1FFF1FA217B307E6
S1130B00E407F50720F0A21BB30BE40BF50B661FFB
S1130B10771F881F991F1A9469F7609570958095BF
S1130B2090959B01AC01BD01CF010895052E97FB63
S1130B301EF400940E94AD0557FD07D00E94740571
S1130B4007FC03D04EF40C94AD05509540953095B8
S1130B5021953F4F4F4F5F4F089590958095709525
S1130B6061957F4F8F4F9F4F0895A29FB001B39F10
S1130B70C001A39F700D811D1124911DB29F700DA2
S1130B80811D1124911D08950E94B505A59F900D06
S1130B90B49F900DA49F800D911D11240895B7FF5B
S1130BA00C94C4050E94C405821B930B0895BB27B3
S1130BB04A3031F4992322F4BDE2909581959F4FF8
S1130BC00C94E305BB27FB015527AA27880F991F1F
S1130BD0AA1FA41710F0A41B83955051B9F7A05D68
S1130BE0AA3308F0A95DA193009779F7B111B193E5
S1130BF01192CB010C94FC05DC01FC01672F71916F
S1130C007723E1F7329704C07C916D9370836291EE
S10F0C10AE17BF07C8F30895F894FFCF97
S10F0C1C0040145454696D653A00200037
S9030000FC
