:100000000C94A7000C94C4000C94C4000C94C4007D
:100010000C94C4000C94C4000C94C4000C94C40050
:100020000C94C4000C94C4000C94C4000C94C40040
:100030000C94C4000C94C4000C94C4000C94C40030
:100040000C94C4000C94C4000C94C4000C94C40020
:100050000C94C40000407A10F35A00A0724E1809A4
:100060000010A5D4E80000E87648170000E40B541F
:10007000020000CA9A3B000000E1F50500008096EE
:100080009800000040420F000000A0860100000020
:10009000102700000000E8030000000064000000DA
:1000A00000000A00000000000100000000002C76A3
:1000B000D888DC674F0823DFC1DFAE59E1B1B796BE
:1000C000E5E3E453C63AE651997696E8E6C284261B
:1000D000EB898C9B62ED407C6FFCEFBC9C9F40F2F7
:1000E000BAA56FA5F490055A2AF75C936B6CF96773
:1000F0006DC11BFCE0E40D47FEF520E6B500D0ED38
:10010000902E0300943577050080841E080000209F
:100110004E0A000000C80C333333330F986E12833D
:100120001141EF8D2114893BE65516CFFEE6DB1811
:10013000D1844B381BF77C1D901DA4BBE4242032D6
:1001400084725E228100C9F124ECA1E53D271124CF
:100150001FBECFE5D8E0DEBFCDBF10E0A0E6B0E027
:10016000E4E7F4E102C005900D92AC36B107D9F78F
:1001700020E0ACE6B0E001C01D92AE3DB207E1F771
:100180000E94C5050C94380A0C94000011B88AE24C
:1001900080B9089594EA96BF06B607FEFDCF91B1E7
:1001A000987F983011F0903179F483B984E886BF54
:1001B00006B607FEFDCF91B1987F983139F081E006
:1001C000903429F480E0089581E0089580E0089556
:1001D00024EA34E844E926BF06B607FEFDCF91B114
:1001E000987F983011F09031B1F783B936BF06B6D9
:1001F00007FEFDCF91B1987F903211F0983529F428
:1002000046BF06B604FCFDCFE6CF08950E94CA00A3
:10021000089584E986BF06B604FCFDCF089583B92E
:1002200084E886BF06B607FEFDCF91B1987F81E0D6
:10023000983209F480E0089584EC86BF06B607FE84
:10024000FDCF83B1089584E886BF06B607FEFDCFD3
:1002500083B10895CF93DF93D82FC62F8EEE0E94DF
:10026000E8008D2F0E940F018C2F0E940F010E9429
:100270000901DF91CF910895DF92EF92FF920F93E2
:100280001F93CF93DF93C82FF62ED72FD42E8EEE49
:100290000E94E8008C2F0E940F018FEE0E94060141
:1002A000DD20D1F00F2D1D2FC0E0D0E0ED2CF12C82
:1002B00081E0E81AF108CE15DF0529F40E94230138
:1002C000F801808304C00E941C01F80180832196FC
:1002D0000F5F1F4FCD1578F30E940901DF91CF9179
:1002E0001F910F91FF90EF90DF9008950F931F9350
:1002F000CF93DF93E0ECF0E0CCE6D0E00C811D8101
:100300002E813F810993199329933993CE17DF07E3
:10031000A9F76093BC007093BD008093BE009093DA
:10032000BF00ACE6B0E060E070E0CB010D911D9144
:100330002D913D91600F711F821F931FAE17BF0754
:10034000A9F725E130E040E050E00E944B07CA01E8
:10035000B901DF91CF911F910F910895CF93DF9352
:1003600000D0CDB7DEB71A82198242E0BE016F5FBE
:100370007F4F8AEA0E943C01898190E0982F88276C
:100380002A81822B9093D5008093D40042E0BE0155
:100390006F5F7F4F8CEA0E943C01898190E0982F2B
:1003A00088272A81822B9093DD008093DC0042E035
:1003B000BE016F5F7F4F8EEA0E943C01898190E011
:1003C000982F88272A81822B9093C9008093C80098
:1003D00042E0BE016F5F7F4F80EB0E943C0189814C
:1003E00090E0982F88272A81822B9093C1008093D8
:1003F000C00042E0BE016F5F7F4F82EB0E943C0174
:10040000898190E0982F88272A81822B9093D900A8
:100410008093D80042E0BE016F5F7F4F84EB0E9463
:100420003C01898190E0982F88272A81822B909324
:10043000D1008093D00042E0BE016F5F7F4F86EB1A
:100440000E943C01898190E0982F88272A81822B85
:100450009093CF008093CE0042E0BE016F5F7F4F4C
:1004600088EB0E943C01898190E0982F88272A819F
:10047000822B9093C3008093C20042E0BE016F5F65
:100480007F4F8AEB0E943C01898190E0982F88275A
:100490002A81822B9093D7008093D60042E0BE0140
:1004A0006F5F7F4F8CEB0E943C01898190E0982F19
:1004B00088272A81822B9093DB008093DA0042E028
:1004C000BE016F5F7F4F8EEB0E943C01898190E0FF
:1004D000982F88272A81822B9093D3008093D20073
:1004E0000F900F90DF91CF910895CF92DF92EF920E
:1004F000FF920F931F93CF93DF9300D0CDB7DEB75A
:100500001A8219826EE284EF0E942A0181EE94E041
:100510000197F1F700C0000042E0BE016F5F7F4F1E
:1005200086EF0E943C012981822F90E0A0E0B0E09C
:100530004427582F692F7A2F8A81482B8091D00029
:100540009091D1009A01AB01281B390B4109510947
:10055000A091D800B091D9000E9479076B017C016D
:100560000B2EBFE0F594E794D794C794BA95D1F7D2
:10057000B02D6091DA007091DB00CB01AA2797FDC6
:10058000A095BA2FBC01CD01052E5BE0660F771F49
:10059000881F991F5A95D1F7502D2091D200309184
:1005A000D3008901222717FD2095322FA901980138
:1005B0002C0D3D1D4E1D5F1D0E944B07C20ED31E0C
:1005C000E41EF51EC092CA00D092CB00E092CC008F
:1005D000F092CD000F900F90DF91CF911F910F916E
:1005E000FF90EF90DF90CF9008954F925F926F92BF
:1005F0007F928F929F92AF92BF92CF92DF92EF92B3
:10060000FF92CF93DF93CDB7DEB72B970FB6F89459
:10061000DEBF0FBECDBF19821A821B820E947502F7
:1006200064EF84EF0E942A0183E699E10197F1F7D4
:1006300000C0000043E0BE016F5F7F4F86EF0E9465
:100640003C01C090CA00D090CB00E090CC00F0906C
:10065000CD0090EAC91A9FE0D90AE108F108A70184
:100660009601C701B6010E9419074B015C01A091D8
:10067000C800B091C9000E9484072B013C01032EE1
:100680003DE075946794579447943A95D1F7302D8F
:10069000A091CE00B091CF00A5019401012E1CE0E5
:1006A00055954795379527951A95D1F7102D0E94A6
:1006B0008407BB2797FDB095AB2F480E591E6A1EC5
:1006C0007B1E22E0420E511C611C711CD301C20131
:1006D000B595A79597958795B595A795979587957E
:1006E0009C01AD0130584F4F5F4FA091C000B091B9
:1006F000C1000E9479079B01AC01012E1FE05695B5
:100700004795379527951A95D1F7102D2887398762
:100710004A875B8729818A8190E0A0E0B0E0BA2F08
:10072000A92F982F8827A22B2B81822B9C01AD010A
:10073000689414F855954795379527951694D1F7F1
:100740002C833D834E835F834090D4005090D5002E
:10075000662457FC6094762C440C551C661C771C50
:10076000440C551C661C771CA091C200B091C300BC
:10077000A50194010E9484074B015C01072E77E1DB
:10078000B594A794979487947A95D1F7702DA091FA
:10079000DC00B091DD00A70196010E948407DC0116
:1007A000CB01072E7BE0B595A795979587957A9510
:1007B000D1F7702D880E991EAA1EBB1E480C591C1D
:1007C0006A1C7B1C440C551C661C771C2C813D81CB
:1007D0004E815F812419350946095709AAE6B8E117
:1007E0000E94790799236CF0660F771F881F991F65
:1007F000288539854A855B850E94290769017A0128
:100800000CC0288539854A855B850E9429076901C6
:100810007A01CC0CDD1CEE1CFF1C9927F7FC9A9585
:100820008F2D7E2D6D2D9B01AC010E9419079B0120
:10083000AC01AEEDBBE00E9479074C01BB2497FCF4
:10084000B094AB2CA3E4B3EEA70196010E948707F6
:10085000BB2797FDB095AB2F880E991EAA1EBB1E15
:100860003FEC830E3EE0931EA11CB11CD501C401D8
:10087000689413F8B595A795979587951694D1F731
:10088000BC01CD016C0D7D1D8E1D9F1D6093C400AC
:100890007093C5008093C6009093C7000E947601B4
:1008A0006093C4007093C5008093C6009093C70006
:1008B0002B960FB6F894DEBF0FBECDBFDF91CF9160
:1008C000FF90EF90DF90CF90BF90AF909F908F9070
:1008D0007F906F905F904F9008950E947502809175
:1008E000CA009091CB00A091CC00B091CD000896A9
:1008F000A11DB11DBC01CD01689413F89595879594
:10090000779567951694D1F70E948D0620E030E028
:1009100040E251E40E9423060895CF930E94C6004E
:1009200083E08A95F1F700000E94AE010E947502F3
:10093000C5E10E94F502C150E1F7CF9108950895F5
:100940008F929F92AF92BF92CF92DF92EF92FF92DF
:100950000F931F93CF93DF93EC016B015A01490171
:1009600080ED0E94E80080E00E940F010E940901D2
:1009700081ED0E9406010E941C018F77982F9295AD
:100980009F70292F220F920F990F891BF7018083E7
:100990000E941C01982F92959F70292F220F920F71
:1009A000990F891BF80180830E941C01982F929552
:1009B0009F70292F220F920F990F891BF4018083BA
:1009C0000E941C010E941C01982F92959F70292F54
:1009D000220F920F990F891BF50180830E941C0141
:1009E000982F92959F70292F220F920F990F891B94
:1009F000F60180830E942301982F92959F70292FE2
:100A0000220F920F990F891B88830E940901DF91A1
:100A1000CF911F910F91FF90EF90DF90CF90BF90FB
:100A2000AF909F908F900895C29A00000000C298E6
:100A3000089511BAC19AC09882B3803528F00E94F7
:100A4000140582B38035D8F78FEF81BB0895CF931B
:100A5000C82F0E941905C2BB88B38C7F88BB0E9437
:100A6000140512BACF91089587B3876087BB8FE2D0
:100A700095E70197F1F700C0000081E00E9427058B
:100A80008FE99FE00197F1F700C0000088E30E9422
:100A9000270595E89A95F1F700008CE00E9427055C
:100AA00085E88A95F1F700000895CF93C82F0E943A
:100AB0001905C2BBC198C09A0E94140512BACF9101
:100AC0000895CF93DF93EC018881882349F0219624
:100AD0000E94550580E58A95F1F789918111F8CF3B
:100AE000DF91CF910895CF93DF9300D000D000D055
:100AF000CDB7DEB74AE0BE016F5F7F4F0E94AD0702
:100B0000CE0101960E94610526960FB6F894DEBFCD
:100B10000FBECDBFDF91CF910895CF92DF92EF92BC
:100B2000FF920F931F93CF93DF93CDB7DEB7CDB670
:100B3000DEB6EDB7FEB7E41BF1090FB6F894FEBFC1
:100B40000FBEEDBF31967F018F010E948C07C70158
:100B50000E9461050FB6F894DEBE0FBECDBEDF91D8
:100B6000CF911F910F91FF90EF90DF90CF9008955C
:100B70008158E62FF0E0E15AFF4F9081890F0E94E3
:100B8000270580E58A95F1F70895CF93DF9300D08C
:100B900000D000D0CDB7DEB70E948D040E949F0424
:100BA0000E943405CE0106967C018E010B5F1F4F1B
:100BB0009E012C5F3F4FAE014D5F5F4FBE016E5FE8
:100BC0007F4F05970E94A00461E081E00E94B80574
:100BD00084E690E00E946105898190E00E9473059F
:100BE0008AE690E00E9461058A8190E00E94730588
:100BF0008AE690E00E9461058B8190E00E94730577
:100C000062E081E00E94B8058C8190E00E9473054B
:100C10008AE690E00E9461058D8190E00E94730554
:100C20008AE690E00E9461058E8190E00E94730543
:100C30008AE690E00E9461050E946D0422E042E095
:100C40000E948D05AFCF0CD0BAC0B2D040F0A9D071
:100C500030F021F45F3F19F09BC05111E4C09EC0F9
:100C6000BFD098F39923C9F35523B1F3951B550BC6
:100C7000BB27AA2762177307840738F09F5F5F4F6F
:100C8000220F331F441FAA1FA9F333D00E2E3AF0B0
:100C9000E0E830D091505040E695001CCAF729D0CA
:100CA000FE2F27D0660F771F881FBB1F2617370719
:100CB0004807AB07B0E809F0BB0B802DBF01FF2749
:100CC00093585F4F2AF09E3F510568F061C0ABC05A
:100CD0005F3FECF3983EDCF3869577956795B79583
:100CE000F7959F5FC9F7880F911D9695879597F99E
:100CF0000895E1E0660F771F881FBB1F6217730717
:100D00008407BA0720F0621B730B840BBA0BEE1F2B
:100D100088F7E0950895E89409C097FB3EF4909514
:100D20008095709561957F4F8F4F9F4F9923A9F0C4
:100D3000F92F96E9BB279395F69587957795679553
:100D4000B795F111F8CFFAF4BB0F11F460FF1BC097
:100D50006F5F7F4F8F4F9F4F16C0882311F096E92A
:100D600011C0772321F09EE8872F762F05C06623D8
:100D700071F096E8862F70E060E02AF09A95660F91
:100D8000771F881FDAF7880F9695879597F908954A
:100D900097F99F6780E870E060E008959FEF80EC2E
:100DA000089500240A9416161706180609060895D1
:100DB00000240A9412161306140605060895092E37
:100DC0000394000C11F4882352F0BB0F40F4BF2BA6
:100DD00011F460FF04C06F5F7F4F8F4F9F4F0895E6
:100DE00057FD9058440F551F59F05F3F71F04795DC
:100DF000880F97FB991F61F09F3F79F087950895C1
:100E0000121613061406551FF2CF4695F1DF08C0DF
:100E1000161617061806991FF1CF869571056105FC
:100E200008940895E894BB2766277727CB0197F9A4
:100E30000895DB018F939F930E947907BF91AF9133
:100E4000A29F800D911DA39F900DB29F900D112424
:100E50000895A1E21A2EAA1BBB1BFD010DC0AA1FFB
:100E6000BB1FEE1FFF1FA217B307E407F50720F013
:100E7000A21BB30BE40BF50B661F771F881F991F8E
:100E80001A9469F760957095809590959B01AC01D7
:100E9000BD01CF010895052E97FB1EF400940E941A
:100EA000620757FD07D00E94290707FC03D04EF4C4
:100EB0000C94620750954095309521953F4F4F4FC8
:100EC0005F4F089590958095709561957F4F8F4FF6
:100ED0009F4F0895A29FB001B39FC001A39F700DC3
:100EE000811D1124911DB29F700D811D1124911D32
:100EF00008950E946A07A59F900DB49F900DA49F2E
:100F0000800D911D11240895B7FF0C9479070E945C
:100F10007907821B930B0895EF920F931F93CF9342
:100F2000DF93E80147FF02C034E101C034E0E42F61
:100F3000FF27E7FDF095F7FF03C0F195E195F10973
:100F4000E32E022F2E2FAE010E94D207CE01DF9199
:100F5000CF911F910F91EF900895BB274A3031F444
:100F6000992322F4BDE2909581959F4F0C94B90787
:100F7000BB27FB015527AA27880F991FAA1FA41773
:100F800010F0A41B83955051B9F7A05DAA3308F067
:100F9000A95DA193009779F7B111B1931192CB019B
:100FA0000C94280A6F927F929F92AF92BF92CF9239
:100FB000DF92EF92FF920F931F93CF93DF93CDB702
:100FC000DEB729970FB6F894DEBF0FBECDBF6A011A
:100FD000B22E102F0C3320F4FF24F394F00E02C035
:100FE0004CE3F42E0F2D27E0AE014F5F5F4F0E94C0
:100FF00050097981272F2970213031F0E1FC06C09A
:10100000E0FC06C060E005C06DE203C06BE201C019
:1010100060E2AE2DA07173FF36C0662311F084E04C
:1010200001C083E08B1510F4B81A01C0B12CA111D6
:101030000BC0F6018B2D90E2882319F0919381501B
:10104000FBCFCB0CD11CB12C662331F0F6016083B1
:1010500096012F5F3F4F6901C6010396E2FE05C06E
:101060002EE4F601208331E404C02EE6F60120834D
:1010700031E631832283FC012B2D30E22223F1F172
:1010800031932150FBCF72FF40C0662311F084E002
:1010900001C083E08B1510F4B81A01C0B12CA11166
:1010A0000BC0F6018B2D90E2882319F091938150AB
:1010B000FBCFCB0CD11CB12C662331F0F601608341
:1010C00096012F5F3F4F6901C6010396E2FE07C0FC
:1010D00029E4F60120832EE4218326E406C029E6D4
:1010E000F60120832EE6218326E62283FC012B2DA8
:1010F00030E2222319F031932150FBCFFC01EB0D9C
:10110000F11D10828EEF9FEFB7C0B1E0611101C0F9
:10111000B0E04B2F50E01816190624F49C012F5F05
:101120003F4F02C021E030E0240F351F112329F08A
:10113000412F50E04F5F5F4F02C040E050E0420F50
:10114000531F2B2D30E04217530714F4B41A01C07B
:10115000B12C2E2D287159F4F6012B2D30E22223CB
:1011600019F031932150FBCFCB0CD11CB12CBB23F8
:1011700031F0F601608396012F5F3F4F6901A111A5
:101180000BC0F6012B2D30E3222319F031932150AF
:10119000FBCFCB0CD11CB12CF80E0A81372F30714C
:1011A000A32E74FF03C0013309F4FA941F142CF426
:1011B0002F2D293018F028E001C021E0682F392FA9
:1011C00097FF02C060E030E0462F532F612C712C56
:1011D0003EE2932EBC01621B71099B01DC01A41B42
:1011E000B50BE1E0F0E0EC0FFD1FAE0FBF1FE12EED
:1011F000F12CF194E194F1084F3FFFEF5F0731F4D8
:10120000F6019082B6016F5F7F4F6B0184179507DF
:101210004CF02417350734F4BD01660D771DFB0132
:10122000118101C010E341505109FFEF6F1A7F0A8D
:10123000B6016F5F7F4F4E155F0524F0F6011083F6
:101240006B01DACF4817590739F4063320F4053318
:1012500019F4A11001C011E3F6011083FB018B2DDD
:1012600090E2882319F091938150FBCFFB01EB0DA5
:10127000F11D108280E090E029960FB6F894DEBF51
:101280000FBECDBFDF91CF911F910F91FF90EF90D7
:10129000DF90CF90BF90AF909F907F906F90089518
:1012A000283008F027E03327DA01990F311D87FD38
:1012B000916000966105710539F432602E5F3D93AF
:1012C00030E32A95E1F708959F3F30F080387105AB
:1012D000610509F03C5F3C5F3D93913008F0806808
:1012E000911DDF93CF931F930F93FF92EF92192FCE
:1012F000987F9695E92F96959695E90FFF27E255E9
:10130000FF4F99273327EE24FF24A701E70105901B
:101310000894079428F4360FE71EF81E491F511D44
:10132000660F771F881F991F0694A1F705900794F1
:1013300028F4E70EF81E491F561FC11D770F881F9E
:10134000991F661F0694A1F70590079428F4F80EDC
:10135000491F561FC71FD11D880F991F661F771F72
:101360000694A1F70590079420F4490F561FC71F54
:10137000D81F990F661F771F881F0694A9F78491BD
:101380001095177041F0D695C79557954795F794E6
:10139000E7941A95C1F7E4E5F0E06894159015918B
:1013A00035916591959105907FE27395E118F10A69
:1013B000430B560BC90BD009C0F7E10CF11E431FBC
:1013C000561FC91FD01D7EF4703311F48A95E6CFE5
:1013D000E894015030F0080F0AF40027021708F4CF
:1013E000202F2395022F7A3328F079E37D932A95D5
:1013F000E9F710C07D932A9589F60694979567952D
:10140000379517951794E118F10A430B560BC90B42
:10141000D00998F023957E9173957A3308F070E3A4
:101420007C932013B8F77E9170617D9330F08395A3
:1014300071E37D9370E32A95E1F71124EF90FF901B
:101440000F911F91CF91DF91992787FD9095089576
:10145000DC01FC01672F71917723E1F7329704C01B
:101460007C916D9370836291AE17BF07C8F30895A6
:04147000F894FFCF1E
:0C1474000040145454696D653A002000DB
:00000001FF
