S0160000576561746865726D6569737465722E7372656345
S11300000C942A000C9447000C9447000C9447006D
S11300100C9447000C9447000C9447000C94470040
S11300200C9447000C9447000C9447000C94470030
S11300300C9447000C9447000C9447000C94470020
S11300400C9447000C9447000C9447000C94470010
S11300500C94470011241FBECFE5D8E0DEBFCDBF0E
S113006010E0A0E6B0E0E0E1FCE002C005900D92F3
S1130070AC36B107D9F720E0ACE6B0E001C01D9280
S1130080AE3DB207E1F70E9401050C9406060C94FC
S1130090000011B88AE280B9089594EA96BF06B6C2
S11300A007FEFDCF91B1987F983011F0903179F42B
S11300B083B984E886BF06B607FEFDCF91B1987F69
S11300C0983139F081E0903429F480E0089581E09A
S11300D0089580E0089524EA34E844E926BF06B68A
S11300E007FEFDCF91B1987F983011F09031B1F7B0
S11300F083B936BF06B607FEFDCF91B1987F903223
S113010011F0983529F446BF06B604FCFDCFE6CFBE
S113011008950E944D00089584E986BF06B604FC44
S1130120FDCF089583B984E886BF06B607FEFDCFE8
S113013091B1987F81E0983209F480E0089584ECCD
S113014086BF06B607FEFDCF83B1089584E886BF57
S113015006B607FEFDCF83B10895CF93DF93D82F62
S1130160C62F8EEE0E946B008D2F0E9492008C2F62
S11301700E9492000E948C00DF91CF910895DF923B
S1130180EF92FF920F931F93CF93DF93C82FF62E16
S1130190D72FD42E8EEE0E946B008C2F0E949200DB
S11301A08FEE0E948900DD20D1F00F2D1D2FC0E0BD
S11301B0D0E0ED2CF12C81E0E81AF108CE15DF0532
S11301C029F40E94A600F801808304C00E949F00C5
S11301D0F801808321960F5F1F4FCD1578F30E949D
S11301E08C00DF91CF911F910F91FF90EF90DF90E2
S11301F008950F931F93CF93DF93E0ECF0E0CCE6E8
S1130200D0E00C811D812E813F810993199329939C
S11302103993CE17DF07A9F76093BC007093BD0034
S11302208093BE009093BF00ACE6B0E060E070E065
S1130230CB010D911D912D913D91600F711F821F76
S1130240931FAE17BF07A9F725E130E040E050E067
S11302500E949005CA01B901DF91CF911F910F91BE
S11302600895CF93DF9300D0CDB7DEB71A821982F9
S113027042E0BE016F5F7F4F8AEA0E94BF0089811E
S113028090E0982F88272A81822B9093D500809321
S1130290D40042E0BE016F5F7F4F8CEA0E94BF0032
S11302A0898190E0982F88272A81822B9093DD0002
S11302B08093DC0042E0BE016F5F7F4F8EEA0E94B4
S11302C0BF00898190E0982F88272A81822B909300
S11302D0C9008093C80042E0BE016F5F7F4F80EB8E
S11302E00E94BF00898190E0982F88272A81822B61
S11302F09093C1008093C00042E0BE016F5F7F4FC6
S113030082EB0E94BF00898190E0982F88272A8180
S1130310822B9093D9008093D80042E0BE016F5F96
S11303207F4F84EB0E94BF00898190E0982F88273B
S11303302A81822B9093D1008093D00042E0BE01A9
S11303406F5F7F4F86EB0E94BF00898190E0982FFA
S113035088272A81822B9093CF008093CE0042E09D
S1130360BE016F5F7F4F88EB0E94BF00898190E0E0
S1130370982F88272A81822B9093C3008093C200F0
S113038042E0BE016F5F7F4F8AEB0E94BF0089810C
S113039090E0982F88272A81822B9093D70080930E
S11303A0D60042E0BE016F5F7F4F8CEB0E94BF001E
S11303B0898190E0982F88272A81822B9093DB00F3
S11303C08093DA0042E0BE016F5F7F4F8EEB0E94A4
S11303D0BF00898190E0982F88272A81822B9093EF
S11303E0D3008093D2000F900F90DF91CF910895A6
S11303F0CF92DF92EF92FF920F931F93CF93DF93ED
S113040000D0CDB7DEB71A8219826EE284EF0E9463
S1130410AD0081EE94E00197F1F700C0000042E0E6
S1130420BE016F5F7F4F86EF0E94BF002981822F3C
S113043090E0A0E0B0E04427582F692F7A2F8A81FA
S1130440482B8091D0009091D1009A01AB01281BD8
S1130450390B41095109A091D800B091D9000E94EB
S1130460BE056B017C010B2EBFE0F594E794D79495
S1130470C794BA95D1F7B02D6091DA007091DB0082
S1130480CB01AA2797FDA095BA2FBC01CD01052E5B
S11304905BE0660F771F881F991F5A95D1F7502D7F
S11304A02091D2003091D3008901222717FD209595
S11304B0322FA90198012C0D3D1D4E1D5F1D0E9478
S11304C09005C20ED31EE41EF51EC092CA00D0923F
S11304D0CB00E092CC00F092CD000F900F90DF9112
S11304E0CF911F910F91FF90EF90DF90CF900895DF
S11304F04F925F926F927F928F929F92AF92BF9230
S1130500CF92DF92EF92FF92CF93DF93CDB7DEB716
S11305102B970FB6F894DEBF0FBECDBF19821A8297
S11305201B820E94F80164EF84EF0E94AD0083E611
S113053099E10197F1F700C0000043E0BE016F5F4D
S11305407F4F86EF0E94BF00C090CA00D090CB00BE
S1130550E090CC00F090CD0090EAC91A9FE0D90A4F
S1130560E108F108A7019601C701B6010E945E05E2
S11305704B015C01A091C800B091C9000E94C9055B
S11305802B013C01032E3DE07594679457944794E6
S11305903A95D1F7302DA091CE00B091CF00A501AE
S11305A09401012E1CE055954795379527951A958A
S11305B0D1F7102D0E94C905BB2797FDB095AB2F2D
S11305C0480E591E6A1E7B1E22E0420E511C611CFD
S11305D0711CD301C201B595A79597958795B595DB
S11305E0A795979587959C01AD0130584F4F5F4F64
S11305F0A091C000B091C1000E94BE059B01AC0156
S1130600012E1FE056954795379527951A95D1F7F2
S1130610102D288739874A875B8729818A8190E052
S1130620A0E0B0E0BA2FA92F982F8827A22B2B8106
S1130630822B9C01AD01689414F855954795379524
S113064027951694D1F72C833D834E835F83409086
S1130650D4005090D500662457FC6094762C440C4A
S1130660551C661C771C440C551C661C771CA091F9
S1130670C200B091C300A50194010E94C9054B01B9
S11306805C01072E77E1B594A794979487947A95A3
S1130690D1F7702DA091DC00B091DD00A701960187
S11306A00E94C905DC01CB01072E7BE0B595A79517
S11306B0979587957A95D1F7702D880E991EAA1E65
S11306C0BB1E480C591C6A1C7B1C440C551C661C24
S11306D0771C2C813D814E815F812419350946099F
S11306E05709AAE6B8E10E94BE0599236CF0660F8B
S11306F0771F881F991F288539854A855B850E9445
S11307006E0569017A010CC0288539854A855B85A7
S11307100E946E0569017A01CC0CDD1CEE1CFF1CE5
S11307209927F7FC9A958F2D7E2D6D2D9B01AC0199
S11307300E945E059B01AC01AEEDBBE00E94BE05CC
S11307404C01BB2497FCB094AB2CA3E4B3EEA701FB
S113075096010E94CC05BB2797FDB095AB2F880E60
S1130760991EAA1EBB1E3FEC830E3EE0931EA11CE5
S1130770B11CD501C401689413F8B595A795979554
S113078087951694D1F7BC01CD016C0D7D1D8E1D8E
S11307909F1D6093C4007093C5008093C60090931E
S11307A0C7000E94F9006093C4007093C500809351
S11307B0C6009093C7002B960FB6F894DEBF0FBE09
S11307C0CDBFDF91CF91FF90EF90DF90CF90BF909E
S11307D0AF909F908F907F906F905F904F9008950F
S11307E0CF930E94490083E08A95F1F700000E94AC
S11307F031010E94F801C5E10E947802C150E1F77D
S1130800CF91089508958F929F92AF92BF92CF9205
S1130810DF92EF92FF920F931F93CF93DF93EC013C
S11308206B015A01490180ED0E946B0080E00E9437
S113083092000E948C0081ED0E9489000E949F001A
S11308408F77982F92959F70292F220F920F990FCF
S1130850891BF70180830E949F00982F92959F70B7
S1130860292F220F920F990F891BF80180830E9470
S11308709F00982F92959F70292F220F920F990F06
S1130880891BF40180830E949F000E949F00982F7F
S113089092959F70292F220F920F990F891BF501B2
S11308A080830E949F00982F92959F70292F220F7A
S11308B0920F990F891BF60180830E94A600982F3E
S11308C092959F70292F220F920F990F891B88836D
S11308D00E948C00DF91CF911F910F91FF90EF90B8
S11308E0DF90CF90BF90AF909F908F900895C29A61
S11308F000000000C298089511BAC19AC09882B34A
S1130900803528F00E94770482B38035D8F78FEFC2
S113091081BB0895CF93C82F0E947C04C2BB88B3C7
S11309208C7F88BB0E94770412BACF91089587B355
S1130930876087BB8FE59AEE0197F1F700C000004E
S113094081E00E948A048FE39FE10197F1F700C0E0
S1130950000088E30E948A0487EC90E00197F1F795
S113096000C000008CE00E948A0487EC90E00197AC
S1130970F1F700C000000895CF93C82F0E947C04B3
S1130980C2BBC198C09A0E94770412BACF9108954D
S1130990CF93DF93EC018881882349F021960E944C
S11309A0BC0480EA8A95F1F789918111F8CFDF912F
S11309B0CF910895CF93DF9300D000D000D0CDB76E
S11309C0DEB74AE0BE016F5F7F4F0E94D105CE01C2
S11309D001960E94C80426960FB6F894DEBF0FBE97
S11309E0CDBFDF91CF9108958158E62FF0E0E15A11
S11309F0FF4F9081890F0E948A0480EA8A95F1F75B
S1130A000895CF93DF9300D000D000D0CDB7DEB7E8
S1130A108FEF8ABB1BBA0E94F0030E9402040E945B
S1130A209704CE0106967C018E010B5F1F4F9E0139
S1130A302C5F3F4FAE014D5F5F4FBE016E5F7F4F36
S1130A4005970E94030461E081E00E94F40484E6B7
S1130A5090E00E94C804898190E00E94DA048AE64A
S1130A6090E00E94C8048A8190E00E94DA048AE639
S1130A7090E00E94C8048B8190E00E94DA0462E056
S1130A8081E00E94F4048C8190E00E94DA048AE6FA
S1130A9090E00E94C8048D8190E00E94DA048AE606
S1130AA090E00E94C8048E8190E00E94DA048AE6F5
S1130AB090E00E94C8048E818BBBB3CFDB018F937F
S1130AC09F930E94BE05BF91AF91A29F800D911D7F
S1130AD0A39F900DB29F900D11240895A1E21A2EA8
S1130AE0AA1BBB1BFD010DC0AA1FBB1FEE1FFF1FCE
S1130AF0A217B307E407F50720F0A21BB30BE40B1E
S1130B00F50B661F771F881F991F1A9469F7609564
S1130B107095809590959B01AC01BD01CF0108951E
S1130B20052E97FB1EF400940E94A70557FD07D0DD
S1130B300E946E0507FC03D04EF40C94A705509553
S1130B404095309521953F4F4F4F5F4F08959095B5
S1130B508095709561957F4F8F4F9F4F0895A29F09
S1130B60B001B39FC001A39F700D811D1124911D7D
S1130B70B29F700D811D1124911D08950E94AF052F
S1130B80A59F900DB49F900DA49F800D911D1124DD
S1130B900895B7FF0C94BE050E94BE05821B930BFB
S1130BA00895BB274A3031F4992322F4BDE290958D
S1130BB081959F4F0C94DD05BB27FB015527AA2780
S1130BC0880F991FAA1FA41710F0A41B83955051D6
S1130BD0B9F7A05DAA3308F0A95DA193009779F74E
S1130BE0B111B1931192CB010C94F605DC01FC0117
S1130BF0672F71917723E1F7329704C07C916D934D
S1130C0070836291AE17BF07C8F30895F894FFCFBD
S10F0C100040145454696D653A00200043
S9030000FC
